:020000040800F2
:1000000000000220A148000801330008193300084D
:1000100021330008293300083133000800000000B4
:10002000000000000000000000000000393300085C
:100030003D3300080000000041330008453300084C
:10004000F1480008F1480008F1480008F1480008AC
:10005000F1480008F1480008F1480008F14800089C
:10006000F1480008F1480008F1480008F14800088C
:10007000F1480008F1480008F1480008F14800087C
:10008000F1480008F1480008F1480008F14800086C
:10009000F1480008F1480008F1480008F14800085C
:1000A000F1480008F1480008F1480008F14800084C
:1000B000F1480008F1480008F1480008F14800083C
:1000C000F1480008F1480008F1480008F14800082C
:1000D000F148000855330008F1480008F1480008CD
:1000E000F1480008F1480008F1480008F14800080C
:1000F000F1480008F1480008F1480008F1480008FC
:10010000F1480008F1480008F1480008F1480008EB
:10011000F1480008F1480008F14800084933000898
:10012000F1480008F1480008F1480008F1480008CB
:10013000F1480008F1480008F1480008F1480008BB
:10014000F1480008F1480008F1480008F1480008AB
:10015000F1480008F1480008F1480008F14800089B
:10016000F1480008F1480008F1480008F14800088B
:10017000F1480008F1480008F148000800000000BC
:08018000F1480008F1480008F5
:1001C0000348044B834202D0034B03B118477047E6
:1001D0006C0000206C000020000000000548064B69
:1001E0001B1AD90F01EBA301491002D0034B03B135
:1001F000184770476C0000206C00002000000000D1
:1002000010B5064C237843B9FFF7DAFF044B13B15E
:100210000448AFF300800123237010BD700000205C
:1002200000000000F448000808B5044B1BB1044965
:100230000448AFF30080BDE80840CFE700000000AD
:1002400074000020F448000870B50F4B0F4DAB420E
:10025000A3EB050607D0B610002455F8043B013483
:100260009847A642F9D804F045FB094D094B5E1B9F
:10027000AB424FEAA60606D0002455F8043B0134F1
:100280009847A642F9D870BDD84A0008D84A000855
:10029000D84A0008DC4A00080EB470B59DB021AC05
:1002A00000254FF4017254F8046BADF814201B952F
:1002B0000290069000F064F80B4B0B930B4B0390ED
:1002C0004FF6FF710790ADF8161018680F9532467B
:1002D000234602A91495019400F0DEFC1DB0BDE890
:1002E000704003B0704700BF750700080000002091
:1002F0000CB4F0B59DB022AC00254FF40173064656
:10030000084654F8047BADF81430029106911B9511
:1003100000F036F80346039307930A4B0B934FF60E
:10032000FF73ADF816303A463046234602A90F95C2
:100330001495019400F0B0FC1DB0BDE8F04002B08F
:10034000704700BF750700080000000000000000B3
:10035000000000000000000000000000000000009D
:10036000000000000000000000000000000000008D
:10037000000000000000000000000000000000007D
:1003800030B490F800F020F007016FF0000C10F08E
:10039000070491F820F040F048804FF000046FF01F
:1003A0000700D1E9002391F840F000F1080082FA3B
:1003B0004CF2A4FA8CF283FA4CF3A2FA8CF34BBB06
:1003C000D1E9022382FA4CF200F10800A4FA8CF27F
:1003D00083FA4CF3A2FA8CF3E3B9D1E9042382FA4D
:1003E0004CF200F10800A4FA8CF283FA4CF3A2FA62
:1003F0008CF37BB9D1E9062301F1200182FA4CF29A
:1004000000F10800A4FA8CF283FA4CF3A2FA8CF300
:10041000002BC6D0002A04BF04301A4612BAB2FA22
:1004200082F200EBD20030BC7047D1E9002304F027
:100430000305C4F100004FEAC50514F0040F91F85C
:1004400040F00CFA05F562EA05021CBF63EA0503F9
:1004500062464FF00004AAE7830730B547D0541E28
:10046000002A3ED0CAB2034601E0013C39D303F86A
:10047000012B9D07F9D1032C2CD9CDB205EB052515
:100480000F2C05EB054535D9A4F1100222F00F0C15
:1004900003F1100EE6444FEA121C1A46C2E9005559
:1004A000C2E9025510327245F8D10CF1010214F084
:1004B0000C0F03EB021204F00F0C13D0ACF1040389
:1004C00023F003030433134442F8045B9342FBD14B
:1004D0000CF003042CB1C9B21C4403F8011BA34265
:1004E000FBD130BD64461346002CF4D1F9E7034636
:1004F0001446C0E71A46A446E0E700BF014B18685F
:10050000704700BF00000020844641EA000313F05A
:1005100003036DD1403A41D351F8043B40F8043B0A
:1005200051F8043B40F8043B51F8043B40F8043BCD
:1005300051F8043B40F8043B51F8043B40F8043BBD
:1005400051F8043B40F8043B51F8043B40F8043BAD
:1005500051F8043B40F8043B51F8043B40F8043B9D
:1005600051F8043B40F8043B51F8043B40F8043B8D
:1005700051F8043B40F8043B51F8043B40F8043B7D
:1005800051F8043B40F8043B51F8043B40F8043B6D
:1005900051F8043B40F8043B403ABDD2303211D30D
:1005A00051F8043B40F8043B51F8043B40F8043B4D
:1005B00051F8043B40F8043B51F8043B40F8043B3D
:1005C000103AEDD20C3205D351F8043B40F8043B0D
:1005D000043AF9D2043208D0D2071CBF11F8013B0B
:1005E00000F8013B01D30B8803806046704700BFD1
:1005F000082A13D38B078DD010F003038AD0C3F1E0
:100600000403D21ADB071CBF11F8013B00F8013BC1
:1006100080D331F8023B20F8023B7BE7043AD9D380
:10062000013A11F8013B00F8013BF9D20B78037055
:100630004B7843708B7883706046704708B410B570
:10064000002A9DB0044636DB4FF40273ADF8143037
:100650004FF000031B930291069120AB17D0013A93
:100660004FF6FF7104920792ADF816101F9A01938E
:1006700002A900F09BF9421C01DA8B232360029B44
:1006800000221A701DB0BDE8104001B070474FF64F
:10069000FF7104920792ADF816101F9A019302A9F8
:1006A00000F084F9431C01DA8B2323601DB0BDE800
:1006B000104001B070478B2303604FF0FF30F5E727
:1006C0000CB410B5214B00291C689CB038DB4FF0EE
:1006D00000034FF402721B93ADF8142002900690B1
:1006E0001FAB18D001394FF6FF7204910791ADF896
:1006F000162002A91E9A0193204600F057F9421CC9
:1007000001DA8B232360029B00221A701CB0BDE823
:10071000104002B070474FF6FF7204910791ADF898
:10072000162002A91E9A0193204600F03FF9431CAF
:1007300001DA8B2323601CB0BDE8104002B0704783
:100740008B2323604FF0FF30F5E700BF000000204F
:1007500010B50C46B1F90E1001F08AFA002803DB3F
:10076000636D0344636510BDA38923F48053A381A3
:1007700010BD00BF002070472DE9F0410C46B1F9D3
:100780000C101F46CB05054616460BD421F48051AC
:10079000A1813B46B4F90E1032462846BDE8F0412F
:1007A00001F08EBDB4F90E100223002201F0CCFC42
:1007B000B4F90C10EAE700BF10B50C46B1F90E1001
:1007C00001F0C2FCB4F90C30421C0EBF23F480537C
:1007D00043F480536065A38110BD00BFB1F90E10D2
:1007E00000F0B2BE2DE9F0478F681D46AF420B689E
:1007F0000C46164636D8B1F90CC01CF4906F0ED1D9
:100800003D46184631462A4601F086F8A368DF1BAC
:100810002368A7602B4400202360BDE8F0874A6965
:10082000096902EB42025F1A02EBD2726B1C521092
:100830003B44934292BF914699461A461CF4806FFE
:10084000804611D0114600F089FF824600B321692D
:100850003A46FFF759FEA38923F4906343F08003DF
:10086000A38105E02F46CCE701F018FA824658B183
:100870000AEB0703A9EB0707A760C4F810A0C4F8A8
:10088000149023602F46BCE72169404600F0E6FF44
:10089000A3890C2243F04003C8F800204FF0FF303A
:1008A000A381BAE72DE9F04F9368176883B09246A9
:1008B000002B74D04FF0000B8B680A6881460C4601
:1008C0005D4645E0B4F90C3013F4906F2CD0D4E9B8
:1008D0000401161A01EB410202EBD272711C521094
:1008E0002944914292BF904688460A465B0539D515
:1008F0001146484600F032FF019000283DD03246B4
:100900002169FFF701FEA289019B22F4906242F067
:100910008002A2819819A8EB0606A660C4F814808C
:1009200023612060A8462E463246594600F0F4FF67
:10093000DAF80810A3682268A3EB08033244491BC5
:10094000A3602260CAF8081049B3D7E900B5083798
:1009500098461046002DF8D09D421E46B2D2A846B9
:100960002E46E1E70146484601F098F90346002883
:10097000D0D12169484600F071FFA3890C2243F0D1
:100980004003C9F800204FF0FF30A381002200236C
:10099000CAF80820CAF8043003B0BDE8F08F002080
:1009A0000023CAF8043003B0BDE8F08F2DE9F04F02
:1009B0001C468B891D069DB088468146934603D50B
:1009C0000B69002B00F0F1800023099343F2200310
:1009D000ADF829309BF800307D4D03940126002BA3
:1009E00073D0DA4603E01AF8013F002B75D0252BAF
:1009F000F9D1BAEB0B0473D19AF80020002A64D025
:100A000000234FF0FF32CDE905230AF1010A0493D8
:100A100007938DF853301A9305E0049A06FA03F30E
:100A20001A430492A2465446052214F8011B284694
:100A300001F0CEF8A346431B0028EED1049BD80654
:100A400044BF20228DF8532019079AF8001044BFA4
:100A50002B228DF853202A2950D1039A1168043291
:100A6000002903927CDB07919AF801102E295BD0B4
:100A7000584C0322204601F0ABF838B1049B001B10
:100A80004022824013430BF1010B04931BF8011B1E
:100A900051488DF82810062201F09AF8002865D0F8
:100AA0004E4B002B55D003AA00924D4B424604A951
:100AB0004846AFF3008007467A1C06D0099B3B44AA
:100AC00009939BF80030002B8BD1B8F80C305B06F3
:100AD0007AD409981DB0BDE8F08FBAEB0B04F4D0BE
:100AE00023465A4641464846FFF77CFE0130ECD08B
:100AF000099B9AF80020234409937FE7A1F1300273
:100B0000092A88BFD346B1D8079B00E00134217879
:100B100003EB830302EB4303A1F13002092AF5D969
:100B20002E290793A346A3D19BF801102A2927D188
:100B3000039B9BF802101A6805920433002A0BF1FC
:100B400002000393B8BF4FF0FF338346B8BF05934D
:100B50008EE7039B073323F0070308330393ADE7C6
:100B6000494243F00203079104937DE703AA0092F0
:100B70001B4B424604A9484601F054F907469BE73F
:100B8000A1F130020023092A05930BF1010B3FF676
:100B90006FAF1BF8011F03EB830302EB4303A1F1CB
:100BA0003002092AF5D9059362E7402100F0D6FD0D
:100BB000C8F80000C8F8100018B14023C8F8143075
:100BC00002E70C23C9F800304FF0FF3082E700BF86
:100BD0005C4A0008644A0008684A000800000000F7
:100BE000E507000838B54B1C1AD09389144623F04A
:100BF00020035268A381636BCDB2A3B1A36B934270
:100C000009DD23685A1E226003F8015C6368013322
:100C10006360284638BD214601F0ACFA0028F0D0C8
:100C20004FF0FF35F5E7236921682BB18B4203D2E2
:100C300011F8013CAB420ED02346C4E90F1204F177
:100C4000440003226063A26303F8465F0122C4E903
:100C50000032284638BD01390132C4E90012D8E714
:100C600010B50C46496B69B104F14403994201D0B7
:100C700000F0F4FD236C63600020606313B1E36B4C
:100C8000236010BDA2892369002142F02002616027
:100C9000A2814FF0FF30F3E72DE9F047ADF5247D59
:100CA00092F8009001930023CDE94533864BA19340
:100CB0000DF10808854BA293CDF81C81B9F1000F06
:100CC00014D0834F17F80930924613F008030646F4
:100CD0000C460AF101052ED1B9F1250F45D0636804
:100CE000002B08DD23681A784A450FD045980DF58A
:100CF000247DBDE8F087A29B214630469847002816
:100D000040F00B8123681A784A45EFD10133236004
:100D10006368013B6360469B0133AA4646939AF899
:100D20000090B9F1000FE1D017F8093013F0080373
:100D30000AF10105D0D062680DE023681A78BA5C28
:100D4000110703F101030ED562684699013AC4E91F
:100D5000003201314691002A21463046EDDCA29B4B
:100D600098470028E9D0AA46D9E7449342939AF8D5
:100D700001102A2905D1102342939AF802100AF192
:100D80000205A1F13003092B0DD8002303EB8303E7
:100D900001EB4301A1F13003449315F8011FA1F1C8
:100DA0003002092AF2D9DFF82CA10322504600F0C4
:100DB0000FFF38B1429AA0EB0A000123834013438E
:100DC00001354293AA461AF8013B782B00F2848041
:100DD000DFE813F0A9008200820082008200820016
:100DE00082008200820082008200820082008200F3
:100DF00082008200820082008200820082008200E3
:100E000082008200820082008200820082008200D2
:100E10008200820082008200820082008200110132
:100E200082008200820082008200820082008200B2
:100E300082008200820082008200820082008200A2
:100E40008200820082008200820082008200820092
:100E50008200820082008200820082008200C7003D
:100E6000C700C700820082008200820082008200E8
:100E70008200820082008200820082008200820062
:100E800082008200CA0082008200FC008200820090
:100E9000820082008200820082000701DE00C7001B
:100EA000C700C70082000E0182008200820082001B
:100EB000E000EE00F20082008200F9008200DE0015
:100EC00082008200CA0000BFE50B0008610C000828
:100ED00019490008644A0008032348930A234393EE
:100EE0006368002B4DDD429B580624D5489B022B9E
:100EF00040F38380042B40F38780474B002B3FF463
:100F00000EAF01AB224642A93046AFF30080012864
:100F10003FF4ECAE02287FF402AF459818B1A389E4
:100F20005B067FF5E4AE4FF0FF30E0E6A29B304673
:100F300098470028F1D122681378FB5C1907D5D5B2
:100F400063684699013B481C002B2146469063602C
:100F500002F10102EADD22601378FB5C1907C5D5B6
:100F6000EEE705234893BBE7429A42F400724292AF
:100F700010226E2B43921DD8032348936368002BE5
:100F8000B1DCA29B2146304698470028ABD0C4E78D
:100F90000A22EEE7429BDA063FF5C1AE019A469976
:100FA000101D0190DB0713684CBF19801960B6E66D
:100FB000082343930423E0E7429B43F408734293DE
:100FC00010234393F6E70223489389E751464046AE
:100FD00001F06AF8429B43F04003429382460123AA
:100FE000CBE7429B43F0400342930023489377E7CB
:100FF00000234393C0E7554671E601AB224642A960
:10100000304600F00BF882E701AB224642A9304699
:1010100000F06CF87BE700BF000000002DE9F8430A
:101020000D461446AA68896907462AB9002914BFE3
:101030004FF0FF320122AA602A68D00603D41A6852
:10104000101D18601668DFF8A0804FF0000901B38A
:10105000012937D002293BD123681A7818F80220D9
:10106000120735D42A68D10609F1010903D41B7887
:1010700006F8013B23686168AA6801390133013A27
:10108000C4E90031AA606AB1002904DDA969002918
:10109000DED12368E6E7D5F8803121463846984707
:1010A0000028F3D02B6813F0100305D1EA68013251
:1010B000EA60AA6902B133702B694B4400202B61AE
:1010C000BDE8F88323686A691878125C002AC9D1E0
:1010D000B9F1000FE6D101290846F1D02B6813F0D1
:1010E0001003E9D1E2E700BF194900082DE9F04FEC
:1010F00087B00C46074615468648874A00938B689A
:101100008969864E032908BF1046019096E80700BA
:1011100003F1FF3C0DF10C0ABCF5AE7F8AE8070035
:1011200040F2B0806FF4AE7103EB010940F25D1341
:10113000A360A0464FF0000B58F81C2B42F45062FD
:10114000226046462B68DAF800001978022200F087
:101150003FFD50B3BBF1010F0CD0BBF1020F00F00B
:10116000B280A3685A1EA260A3B94FF0010B0AF126
:10117000040AE7E7D4E900321AB9082243F40073FD
:10118000626023F4A0632360A3685A1EA260002B50
:1011900000F08A802B685A1C2A601B7806F8013BF5
:1011A0006B68013B002B6B6073DD0BF1010BBBF136
:1011B000030FDCD16168002967D0C1F11001584BE1
:1011C0006069194400F070FFA368002B00F09F8055
:1011D0004FF0000A06E02B6801332B60A368013B47
:1011E000A36003B3D5F800E062699EF800C012F86E
:1011F0000C1022683046B9B1BCF1300F22F41061F6
:1012000055D021609EF8003000F8013B06466B681F
:10121000013B002B294638466B60DCDCD4F880317A
:1012200098470028DAD02268D1050CD5464507D961
:1012300016F8011CD4F87C312A463846013E9847FE
:10124000464562D0226812F0100211D132706368F4
:10125000019D38464146A84723689A0646D500991D
:101260000B681A1D0A601B681860E3680133E360AD
:101270002369A6EB0806564433442361002007B0D7
:10128000BDE8F08F4FF0000953E70A2363600621A1
:1012900095E7D4F88031294638469847002884D00D
:1012A00022684FF0000ABFE74FF0020B5FE712051C
:1012B000A7D501330AF1010AB9F1000FA7D0A36045
:1012C00009F1FF39A3E7236803F4C062B2F5007F98
:1012D0007FF470AF43F480732360A36810226260D0
:1012E0005A1EA260002B3FF465AF53E7009D2A68A9
:1012F000DF0702F1040103D5296013681880B4E701
:10130000009B196013681860AFE70120B7E79A46A1
:1013100089E700BF55240008511B00080C4900084C
:10132000704A000800207047024A0349034800F051
:1013300029BC00BF500000209116000804000020C6
:101340000C4B4168994210B5044601D000F0A0F959
:10135000A168094B994202D0204600F099F9E16852
:10136000064B994204D02046BDE8104000F090B9E9
:1013700010BD00BF8C000020F40000205C010020A4
:10138000002070472DE9F8432A4C2B49DFF8BC9028
:10139000DFF8BC80294FC4F8381100250423082247
:1013A000294604F15C00264EE360C4E90055C4E917
:1013B0000455A5606566A561FFF74EF8214B63678C
:1013C0000822294604F1C400C4E90849C4E90A878F
:1013D000C4E91A55C4E91E552567C4F8CC50C4F8B1
:1013E00080502663FFF738F8174BC4F8DC302946E5
:1013F00004F16803082204F59670C4F88830C4E943
:101400002398C4E92576C4E93455C4E93855C4F8AD
:10141000D850C4F83451C4F8E850FFF71DF804F16F
:10142000D003C4E93D98C4E93F76C4F8F030BDE884
:10143000F88300BF8C00002029130008B9070008BA
:10144000DD07000809000100120002005107000832
:1014500079070008F8B5254BD3F838310646002B3C
:101460003CD0234FD7E90134013B04D51DE05A1C81
:1014700004F1680419D0B4F90C50013B002DF6D1E9
:101480001C4BE360C4E90155C4E904556566256059
:10149000A5610822294604F15C00FEF7DDFFC4E9DE
:1014A0000D55C4E912552046F8BD3D680DB12F46D3
:1014B000D8E74FF4D671304600F050F9044680B1B9
:1014C0000423C0E900530C302946A0604FF4D072C9
:1014D0002546FEF7C1FF3C602F46C3E7FFF752FFEA
:1014E000BFE70C2338603360DDE700BF8C000020CD
:1014F000500000200100FFFF036A03B17047044B56
:10150000044AD3F838310262002BF7D13AE700BF22
:101510008C00002041130008704700BF704700BFD7
:10152000024A0349002000F02DBB00BF50000020FC
:1015300025130008024A0349002000F023BB00BF26
:10154000500000208113000838B5074D00220446E2
:1015500008462A6001F08CFF431C00D038BD2B6880
:10156000002BFBD0236038BDD0010020B1F90C3036
:101570002DE9F0411E070C4680463DD44A68002AFA
:1015800056DDE56A002D34D00022D8F80060C8F896
:10159000002013F48052216A57D101234046A84706
:1015A000451C024666D0B4F90C30E56A216A58073A
:1015B00005D56368D21A636B0BB1236CD21A002372
:1015C0004046A847431C42D0002363602369236040
:1015D000A389DF0400D56065616BC8F8006041B184
:1015E00004F14403994202D0404600F037F9002349
:1015F00063630020BDE8F0810E69002EF9D09B07DF
:101600000D6808BF4B690E6018BF0023AD1B8B60CF
:101610000BE02B463246216AA76A4046B847B0F134
:10162000000CA5EB0C05664406DD002DF1DCE0E7BF
:101630000A6C002AA5DCDCE7B4F90C3043F0400367
:10164000A3814FF0FF30BDE8F081626DAFE7D8F8BD
:101650000010B4F90C301D29F0D80C4ACA40D50747
:10166000ECD52269226000226260DA04B4D5002938
:10167000B1D0B1E7D8F80030002B94D01D2B01D0A9
:10168000162BD9D1C8F80060B3E700BF0100402095
:101690000B69B3B110B5044682B008B1036A5BB1FF
:1016A000B1F90C3013B9002002B010BD204602B0D1
:1016B000BDE81040FFF75ABF0191FFF71DFF0199E8
:1016C000EEE70020704700BFB8B138B50D4A036996
:1016D000156804462BB10DB12B6A53B1B4F90C3027
:1016E0000BB9002038BD21462846BDE83840FFF739
:1016F0003DBF2846FFF700FFF0E7034A03490448CF
:1017000000F040BA000000205000002091160008B0
:101710000400002070B5104E336805460C46B3B186
:101720002146284600F0E2FD431C0CD0C41C24F0E6
:101730000304A04205D0211A284600F0D7FD01304D
:1017400001D0204670BD4FF0FF34204670BD1946D1
:1017500000F0CCFD3060E3E7C80100202DE9F8433C
:10176000CD1C25F0030508350C2D38BF0C25002DA8
:10177000064618DBA94216D8DFF8DC8000F0E0FC52
:10178000D8F80420A2B1144603E0636822467BB176
:101790001C4623685B1BF8D40B2B1FD8944263684C
:1017A00054D053600CE00C2333600020BDE8F88374
:1017B00029463046FFF7AEFF431C044619D00560AA
:1017C000304600F0BFFC04F10B00231D20F00700A1
:1017D000C21A1CBF1B1AA350BDE8F88361199442BA
:1017E000256014BF5160C8F80410635163684B60F2
:1017F000E6E7D8F804701FB33C467F68002FFBD1A2
:1018000023683946304604EB030900F06FFD81453B
:1018100016D12368ED1A29463046FFF77BFF0130C9
:101820000ED02368D8F804202B442360536883B17A
:10183000A34203D01A465B689C42FBD10023B0E769
:101840000C233360304600F07DFCAEE7C8F804306E
:10185000B6E7C8F80470B3E7C8010020002950D0EB
:1018600038B551F8043C0C1F002BB8BFE4180546EE
:1018700000F066FC274A13682BB1A3420CD92168FB
:10188000601883422CD0636028461460BDE838405D
:1018900000F058BCA3420FD81A465B68002BF9D160
:1018A00011685018844217D02CD3636054602846C6
:1018B000BDE8384000F046BC11685018A04214D072
:1018C00020D8216860188342EFD118685B6808440B
:1018D000C4E900035460EAE723680B441360E6E7B9
:1018E00018685B6808442060CDE720680144501800
:1018F00083421160DBD1D3E900040144C2E9001442
:10190000D5E770470C232B602846BDE8384000F02F
:1019100019BC00BFCC01002088420ED98B1883422D
:101920000BD900EB020C002A6ED0624613F801CDF1
:1019300002F801CD9942F9D170470F2A0FD803461A
:1019400002F1FF3C002A5FD00CF1010C013B8C44FA
:1019500011F8012B03F8012F6145F9D1704740EAD6
:1019600001039B0751D1A2F1100370B501F1200CC6
:1019700023F00F0501F1100E00F11004AC441B0917
:101980005EF8105C44F8105C5EF80C5C44F80C5C8B
:101990005EF8085C44F8085C5EF8045C44F8045C9B
:1019A0000EF1100EE64504F11004E9D1013312F0F6
:1019B0000C0F01EB031102F00F0400EB031328D00E
:1019C000043C24F003064FEA940C1E441C1F8E4670
:1019D0005EF8045B44F8045FB442F9D10CF10104F1
:1019E00002F0030203EB840301EB840102F1FF3CEC
:1019F0004AB10CF1010C013B8C4411F8012B03F8A6
:101A0000012F6145F9D170BD704702F1FF3C0346DB
:101A10009AE72246EAE700BF242B2DE9F84F43D886
:101A2000012B41D0804649481F468E4675461EF818
:101A300001BB10F80B4014F00804F7D1BBF12D0FD7
:101A40006FD0BBF12B0F08BF9EF800B06FF00049BC
:101A500008BF05F1020E73BBBBF1300F4BD00A2754
:101A60003B460025B9FBF7F6284607FB169A05E02A
:101A70003AD007FB00C001251EF801BBABF1300CCA
:101A8000BCF1090F06D9ABF1410CBCF1190F19D803
:101A9000ABF1370C63451EDDB5F1FF3FECD086425C
:101AA000E6D24FF0FF35E7E7FEF728FD1623036087
:101AB0000020BDE8F88F102BD3D1BBF1300F23D01D
:101AC0001F46CEE7ABF1610CBCF1190F03D8ABF1A7
:101AD000570C6345E0DC6B1C2BD054B9002AE8D0CE
:101AE00085BB1160BDE8F88FE245C2DA4FF0FF35E3
:101AF000C2E74042F2E79EF8003003F0DF03582BC4
:101B000008D008273B46ACE79EF8000000F0DF0055
:101B10005828D5D110279EF801B03B460EF1020E91
:101B20009FE79EF800B04FF0004905F1020E012436
:101B300091E72223C8F8003032B10EF1FF31484658
:101B40001160CFE78146F8E74846B2E71949000837
:101B500062E700BF10B4044C8446134620685DF869
:101B6000044B0A46614657E70000002010B4044CBD
:101B70008446134620685DF8044B0A4661464BE7ED
:101B8000000000202DE9F8430746884616464FF02E
:101B90000009D6E90154013D10D4A389012B08D9CD
:101BA000B4F90E3001332146384602D0C04749EA25
:101BB0000009013D6B1C04F16804EED13668002E6B
:101BC000E7D14846BDE8F8830000000000000000AF
:101BD00001F0FF01102A2BDB10F0070F08D010F8DE
:101BE000013B013A8B422DD010F0070F42B3F6D1E2
:101BF000F0B441EA012141EA014122F007047FF0FB
:101C000000070023F0E80256083C85EA010586EA51
:101C1000010685FA47F5A3FA87F586FA47F6A5FA8D
:101C200087F68EB9EED1F0BC01F0FF0102F0070299
:101C300032B110F8013B013A83EA010313B1F8D144
:101C40000020704701387047002D06BF3546033825
:101C5000073815F0010F07D1013015F4807F02BF5E
:101C6000013015F4C03F0130F0BC0138704700BFAF
:101C700038B50C46084D8446114620461A460023C6
:101C80002B60644601F0FAFB431C00D038BD2B6882
:101C9000002BFBD0236038BDD00100202DE9F0419E
:101CA000144641B30AB306460D4600F031FB8442A8
:101CB000074602D8B4EB500F13D821463046FFF741
:101CC0004DFD804650B1BC422246294628BF3A46C7
:101CD000FEF71AFC29463046FFF7C0FD4046BDE836
:101CE000F081A8464046BDE8F081A046FFF7B6FD6A
:101CF0004046BDE8F081BDE8F0411146FFF72EBD3A
:101D00002DE9F84F92461F460A698B68DDF8289046
:101D10009A42B8BF1A46CAF8002091F843300C46E0
:101D2000064613B10132CAF80020226891065FD539
:101D3000DAF800300233CAF80030226812F0060FD9
:101D400011461DD1E1689942D8BF114618DD4FF008
:101D5000000804F1190B05E0E568DAF80030ED1A27
:101D600045450CDD01235A4639463046C847013007
:101D700008F10108F0D14FF0FF30BDE8F88F21687D
:101D800094F84330003B18BF01238A060AD5E118B6
:101D90005A1C302081F84300224494F8451082F800
:101DA0004310023304F1430239463046C84701303C
:101DB000E1D02368DAF80050216903F00603042B10
:101DC000D4E902201BD08A4220DD4FF00008521ACD
:101DD00090441A34002501E0454517DA01232246D4
:101DE00039463046C847013005F10105F4D1C2E754
:101DF00012F0060F0DD0003B18BF0123D2E7401BA5
:101E00008A4220EAE078E2DC0028E2DC0020BDE83B
:101E1000F88FE168DAF800309942D8BF114696DCB5
:101E2000AEE700BF2DE9F047174684B00A7E0C9D4F
:101E30000C460646984601F1430C002A35D0A2F123
:101E40005803D9B2202969D8202B67D8DFE813F0CE
:101E5000E6006600660066006600660066006600D2
:101E6000660066006600AC007000660066006600F2
:101E70006600700066006600660066002100830050
:101E8000C60066006600B600660083006600660055
:101E9000EC002B6822686169181D286010061B6819
:101EA00002D4520600F1E08019600023E14623616C
:101EB000CDF800803B4603AA21463046FFF720FFBD
:101EC000013020D023694A4639463046C0470130A8
:101ED00019D02368E068DDF80C909B0718D54845B9
:101EE00016DD002504F1190A04E0E068A0EB0903FF
:101EF000AB420DDD0123524639463046C047013022
:101F000005F10105F1D14FF0FF3004B0BDE8F087D5
:101F10004845B8BF484604B0BDE8F08784F8422081
:101F2000012004F142090023206184F84330BFE717
:101F30002A682368111D1806296002D4590600F189
:101F400095801068014600286268C0F2938054486A
:101F50004FF00A0E15E020682B6810F0800F53F840
:101F6000041B02D1400648BF89B26F2A4C482B603F
:101F700014BF4FF00A0E4FF0080E0023626884F879
:101F80004330002AA26051DB236823F0040323605E
:101F900000294BD1002A7BD1E146BEF1080F56D073
:101FA000ACEB0903236183E72B681A6804332B60C9
:101FB00004F1420984F842200120B4E72B686268EA
:101FC000191D2960D3F8009000214846FFF700FE54
:101FD000002863D0A0EB09006060A4E7236843F009
:101FE0002003236078222F4884F845202A6813F0C4
:101FF000800F52F8041B03D113F0400F18BF89B2B1
:102000002A60DA0744BF43F02003236019B923682C
:1020100023F0200323604FF0100EAEE7582384F81E
:1020200045301F482368E1E72368DBE77546E14652
:10203000B1FBF5F305FB131A0A46AA4210F80A1081
:1020400009F8011D1946F3D2BEF1080FA8D1236883
:10205000DD07A5D5626823699A42A1DC302309F81F
:10206000013C09F1FF399BE719801EE7B2F9001026
:10207000084668E72D20002AA26084F8430002DBAE
:1020800023F0040323600A2505484942AE46CEE703
:10209000037884F8423004F142097EE7606842E741
:1020A000904A0008A44A000870B50C785E2C864659
:1020B00024D00023481C9C46002263F3070263F3EC
:1020C0000F2263F3174263F31F620EF580717346AC
:1020D00043F8042B8B42FBD174B18CF001010EF854
:1020E0000410451C15F8013C2D2B0ED05D2B0AD099
:1020F0001BB11C462846F2E7013870BD01234C781D
:10210000881C9C46D8E7284670BD90F801C0BCF1F9
:102110005D0FEED06445ECDC661C02300EEB06026F
:1021200002F8011BA2EB0E03013B9C45F8DCACEB73
:102130000403013B6445A8BF00230235F418D1E72E
:10214000704700BF704700BF38B50C46084D844645
:10215000114620461A4600232B60644601F08CF994
:10216000431C00D038BD2B68002BFBD0236038BD4A
:10217000D001002001F144032DE9F0410C46496BE8
:10218000994214D0A66B77003A46FFF787FD0546C3
:1021900030B300EB0608014632464046FEF7B4F97C
:1021A000C4E90D57C4F800800020BDE8F0814FF469
:1021B0008061FFF7D3FA98B194F846304FF480620B
:1021C000C4E90D0280F8FF3394F8453080F8FE33FF
:1021D00094F8442080F8FD2300F2FD332360E3E708
:1021E0004FF0FF30E1E700BF70B54C1C2BD00E461E
:1021F0000546144610B1036A002B4CD0B4F90C30DC
:1022000023F020025807A28106D4D9061BD51B074C
:1022100034D442F00402A281626B6368F6B2AAB1C0
:10222000A26B9A4209DD23685A1E226003F8016CF2
:10223000636801336360304670BD21462846FFF76E
:1022400099FF0028EFD04FF0FF36F4E722692168AC
:102250002AB18A4203D211F8012CB2421ED0224682
:10226000C4E90F1304F1440003236063A36302F87D
:10227000466F0123C4E90023304670BD214628463D
:10228000FFF706FA0028DED1B4F90C20A06022F096
:102290000802A061BDE7FFF72FF9AFE7013901336D
:1022A000C4E90013C7E700BF10B4044C03460A4654
:1022B00020685DF8044B1946FFF796BF0000002028
:1022C00038B50C46084D8446114620461A46002370
:1022D0002B60644601F0D4F8431C00D038BD2B6855
:1022E000002BFBD0236038BDD001002038B5074D4E
:1022F0000022044608462A6001F0C4F8431C00D0BE
:1023000038BD2B68002BFBD0236038BDD0010020E6
:1023100051F8043C181F002BBCBF0B58C018704765
:102320002DE9F047074649480E46354616F801EBB9
:1023300010F80EC01CF0080CF7D1BEF12D0F5AD0CA
:10234000BEF12B0F03BF96F800E06446AE1C644656
:102350004BB9BEF1300F5CD00A23DFF8F4804FF0A8
:10236000050A99460AE0102B4AD04FF0FF38B8FB17
:10237000F3F803FB08FA6FEA0A0A99460025284693
:1023800005E02CD009FB00C0012516F801EBAEF1E9
:10239000300CBCF1090F06D9AEF1410CBCF1190F9C
:1023A0000BD8AEF1370C634510DDB5F1FF3FECD033
:1023B0004045E6D94FF0FF35E7E7AEF1610CBCF1DF
:1023C000190F03D8AEF1570C6345EEDC6B1C0BD034
:1023D00004B140420AB165B91160BDE8F087D44547
:1023E000D0DD4FF0FF35D0E722233B602846002A9E
:1023F000F3D0711EF0E796F800E00124AE1CA7E7C9
:10240000BEF1300F11D04FF00F0A6FF070489946AF
:10241000B4E7337803F0DF03582B0BD008234FF0D9
:10242000070A6FF060489946A8E7307800F0DF00AF
:102430005828E8D14FF0100996F801E04FF00F0A44
:1024400002366FF070484B4698E700BF1949000804
:102450009999991964E700BF10B4044C8446134657
:1024600020685DF8044B0A46614659E700000020E9
:1024700010B4044C8446134620685DF8044B0A46A9
:1024800061464DE70000002053B94AB9002908BF52
:1024900000281CBF4FF0FF314FF0FF3000F06AB949
:1024A000ADF1080C6DE904CE00F006F8DDF804E0AB
:1024B000DDE9022304B070472DE9F047089D0E4680
:1024C00004460F46002B4AD194468C45B2FA82F25C
:1024D00060D942B1C2F12003974020FA03F30CFA0D
:1024E00002FC1F4394404FEA1C4E1FFA8CF6B7FBC8
:1024F000FEF1230C0EFB117743EA074301FB06F0C4
:1025000098420AD91CEB030301F1FF3780F01581D3
:10251000984240F21281023963441B1AA4B2B3FB01
:10252000FEF00EFB103344EA034400FB06F6A6421D
:102530000AD91CEB040400F1FF3380F00081A642AD
:1025400040F2FD806444023840EA0140A41B0021AF
:102550001DB1D4400023C5E90043BDE8F0878B429C
:1025600005D90DB1C5E9000100210846F5E7B3FA28
:1025700083F1002946D1B34202D3824200F2F580B2
:10258000841A66EB030201201746002DE5D0C5E949
:102590000047E2E7002A40F09380A1EB0C034FEAEA
:1025A0001C471FFA8CFE0121B3FBF7F607FB163020
:1025B000230C43EA00430EFB06F0984208D91CEBBB
:1025C000030306F1FF3802D2984200F2D08046465B
:1025D0001B1AA4B2B3FBF7F007FB103344EA034421
:1025E0000EFB00FEA64508D91CEB040400F1FF33E6
:1025F00002D2A64500F2B6801846A4EB0E0440EACB
:102600000640A5E7C1F120078B4022FA07FC4CEAFF
:10261000030C06FA01FE20FA07F426FA07F344EA4F
:102620000E0400FA01F84FEA1C404FEA1449B3FBCC
:10263000F0FE1FFA8CF600FB1E3349EA03430EFB43
:1026400006F9994502FA01F20BD91CEB03030EF1CE
:10265000FF3A80F08580994540F28280AEF1020E0B
:102660006344A3EB0909A4B2B9FBF0F300FB13998F
:1026700044EA094403FB06F6A64208D91CEB04040D
:1026800003F1FF3068D2A64266D9023B644443EAB4
:102690000E40A41BA0FB02E6B4427346B14652D3DF
:1026A0004FD05DB1B8EB030264EB090404FA07F7FD
:1026B00022FA01F31F43CC40C5E9007400214CE726
:1026C000C2F1200120FA01F30CFA02FC26FA01F112
:1026D000964033434FEA1C471FFA8CFEB1FBF7F0DC
:1026E00007FB1016190C41EA064100FB0EF68E425C
:1026F00004FA02F408D91CEB010100F1FF382DD2D5
:102700008E422BD902386144891B9BB2B1FBF7F68C
:1027100007FB161143EA014306FB0EF1994208D963
:102720001CEB030306F1FF3814D2994212D9023E82
:1027300063445B1A46EA004136E73946EDE618463F
:1027400002E7F045ADD2BEEB020366EB0C060138A2
:10275000B146A6E74646ECE7034698E74046D3E78E
:10276000D6467EE76444023847E708460DE7023E56
:1027700063442DE7704700BF034B02689A4200D0C4
:10278000704700F001B900BF00140040034B02681D
:102790009A4200D0704700F091BA00BF001001408B
:1027A000034B02689A4200D0704700F0B9BA00BFEC
:1027B0000010014072B6054B08204FF480114FF411
:1027C0008002986199619A61FEE700BF00100240A3
:1027D00000B595B000F0AAFE0023CDE90B33CDE99A
:1027E0000433CDE90633264901930A9303930D93ED
:1027F000086C244A40F080500864096C01F0805154
:10280000019101990293136843F4804313601368A4
:1028100003F480430293082301204FF480314FF4E6
:102820008002022410934FF4A873CDE90801CDE98A
:102830000E4211930222072308A8CDE91223029920
:1028400001F092F8D0B90F220346CDE903244FF4EA
:10285000A0554FF4805203A80521CDE90535079214
:1028600001F098FA50B900F00FF800F071F800F09C
:1028700045F800F085FA00F0BBFAFCE7FFF79AFF95
:10288000003802400070004030B5002489B0CDE926
:102890000244CDE90444174B009406941A6B164D7C
:1028A00042F010021A631A6B02F010020092009AB2
:1028B00001941A6B42F001021A631B6B03F00103CF
:1028C0000193284601220821019B01F049F8224684
:1028D0002846F02101F044F8F8220123CDE9022333
:1028E00002A9002203232846CDE9042300F01CFF9F
:1028F00009B030BD003802400010024000B5124857
:1029000012495322C0E9001283B00023182180220B
:10291000CDE90033C0E90231826101F041FC58B9D0
:102920000022002308486946CDE9002301F066FC37
:1029300028B903B05DF804FBFFF73CFFF0E7FFF7B1
:1029400039FF03B05DF804FBD801002000140040FB
:1029500010B50B480B4C00234FF4E1310C22C0E9B9
:102960000041C0E90233C0E90432C0E9063301F096
:102970001FFD00B910BDBDE81040FFF71BBF00BF31
:102980002002002000100140B54BB64A4FF48010E1
:102990004FF480012DE9F041986199611388B248A4
:1029A00001339BB2272B2AD81380B04A03681168E1
:1029B00059182CBF01240024116003B1A4B9436845
:1029C000516859182CBF01200020516053B148B103
:1029D000A349A74AA74B40208861516893F9013069
:1029E0000B445360BDE8F0819D4CA149A14B1025DB
:1029F000A5610C6893F9003023440B60DFE70023E6
:102A00009C4D9D49DFED9D5ADFED9D4ADFED9D2AEE
:102A10009FED9D3A9FED9D5A9D4C9E4E9E4F13807B
:102A20008446F7EE003A4FF0FF0E32787ABB07EBA0
:102A3000830292ED006A3278B8EEC66A62B3F0EEB5
:102A4000657AC1ED005AC4ED005A95F90020002BBB
:102A500000F0CB80002A40F3C6804FF40002B7EEAE
:102A6000007ADFF8FC81F4EEC77AF1EE10FAC8F8CC
:102A7000182059D5002240F82320884B1A78002AC4
:102A800093D07B4900220A604A601A708DE7327841
:102A9000B0EE656A002AD2D1D1ED007AD4ED006A99
:102AA00036EE674A84EE227AB4EEC37AF1EE10FA7B
:102AB00047D59FED757A9FED7A4A37EE667AB4EE88
:102AC000C47AF1EE10FA5CD5B0EE447A37EE267A8D
:102AD0009FED6D4AB4EEC47AF1EE10FA45D5DFED04
:102AE000716AB0EE447A77EEA67A84ED007A36EE1B
:102AF000677AB0EEC77AB4EEE37AF1EE10FA5CD4FE
:102B0000C1ED007AF4EEC57AF1EE10FA43D5544ADD
:102B100081ED005A85F800E0002B55D14FF40018E4
:102B2000C2F81880DFED607A67EEA47A0135FCEE1A
:102B3000E77A04310434ECEC017A002B9DD10123B7
:102B400073E79FED5A4AB4EEC47AF1EE10FAB2DDA3
:102B500034EE667A9FED524AB4EEC47AF1EE10FA82
:102B60000FD59FED537A36EEC77A9FED504AB4EEFB
:102B7000C47AF1EE10FA2CDCDFED4E6A67EE266ABD
:102B8000B1E79FED4B4AB4EE447AF1EE10FAC8BFBC
:102B9000B0EE447A9AE79FED447AF4EEC77AF1EE0C
:102BA00010FA39DD01222A7081ED007A2C4AABB18E
:102BB0004FF40008C2F81880B4E70022F0EE467A1D
:102BC00081ED006A22609DE74FF08008C2F818800E
:102BD000A8E7DFED396AB0EE447A84E74FF02008C9
:102BE000C2F818809EE7802239E7002AD4BF4FF44C
:102BF00000122022B7EE007ADFF86480F4EEC77A84
:102C0000F1EE10FAC8F818208ED500234CF8043BDA
:102C100001350431043492E7B6EE007AF4EEC77A57
:102C2000F1EE10FA11DCFEEE006AF4EEE67AF1EE57
:102C300010FAB0EEE77A0FD5FF222A70F0EE477A4D
:102C4000002BD0D14FF40012D4E701222A70002BC0
:102C50007FF403AF2022CDE7F0EE477AF5E600BF20
:102C600000100240CE020020D8020020E002002026
:102C7000D00200205C000020F002002000000000D4
:102C800017B7D1478FC2753D004005C5004085C4C8
:102C9000E8020020F9020020FC020020F8020020D7
:102CA000AE6963C1B17208C000408544004005456B
:102CB000AE6963416F12833AB172084070B5134A2E
:102CC00086B002AC107800230DF1070221468DF882
:102CD000073000F0B7F910B10D4D2B7873B19DF8A6
:102CE000073023B10B4A138843F0080313800749C8
:102CF0000948012201F0AAFB06B070BD94E80F005C
:102D0000064E86E80F0001232B70E8E7BC02002086
:102D100068020020C0020020200200206C02002077
:102D200010B41448144C036885B00022009219684E
:102D300000915968009100990192196801915968B0
:102D400001910199029219680291596802910299C0
:102D500003921A6803925A68238803920749039AD8
:102D600043F010030122238005B05DF8044B01F00D
:102D70006DBB00BF20020020C0020020BC0200206A
:102D800038B5124B124D134908229A612A88002443
:102D900022F001020C702A804FF480114FF480025F
:102DA00099619A6100F0E8FB0B4B0C4A18600C4BE0
:102DB00010600C490C482C8001221C8001F046FB5D
:102DC000BDE83840094801F0A3B800BF0010024038
:102DD000C0020020CC020020C4020020C802002053
:102DE000BE020020BC02002020020020D8010020EA
:102DF000F0B595B000F0C0FB814B1A7804462ABBB1
:102E0000804B1868201AB0F5FA7F18D97E4B7F4A9C
:102E10007F4D002119605960138843F00406168025
:102E20002E7866B142F21076B04208D9794823F084
:102E3000010343F004030826866129701380764A53
:102E40001368E31A132B14D815B0F0BD72B673498A
:102E50000A784D688868097BCFB20021D2B2197018
:102E600062B6531E042BCBD8DFE803F0866E514BBD
:102E70003700146072B66A4A6A4BD2ED007A92ED5E
:102E8000017A1A685B68FDEEE77ABDEEC77A62B632
:102E90005E498DED017ACDED007A09886248029194
:102EA00001880391614D01310180402104A800F0A7
:102EB000C1F995F84130202B0446C5D1431E9BB281
:102EC0003F2BC1D8224604A95948FDF71DFB58499C
:102ED0002246284601F09EFAB6E74B22544840218C
:102EE00000F0ECF9514B93F84120202A88D1421E82
:102EF00092B23F2A84D802464D49184601F08AFA18
:102F00007EE74C4B3F49012208681A707AE73F4838
:102F10003D4A0388484E494D002143F002031160A9
:102F2000038051603B4B012200200021C5E90001D4
:102F300032704FF480114FF4800299619A6100F071
:102F40001BFB304B18605DE7304E3388002F40D1BB
:102F50002D4A394817602F49576001252C4A0570C2
:102F600023F00103082088619BB21770338000F0C2
:102F700003FB244B186045E7244E40F22A42954259
:102F8000338835DC2E4A954232DB1F4A40F22A4113
:102F90008842156030DC2A4988422DDB5060264A81
:102FA00023F0060300211170338000F0E5FA154A82
:102FB000174B10601A78002A7FF424AF3288154925
:102FC00042F001024FF400258D61328001221A7017
:102FD00018E7104A4FF4002191610D4A0121117048
:102FE000154A23F002030021117043F00103BDE7ED
:102FF00043F020031546C8E743F020030846CDE719
:1030000068020020C8020020FC020020C00200204C
:10301000CC02002000100240C40200206C020020FC
:10302000F0020020D0020020BE020020200200207A
:103030007C020020F8020020F9020020D8020020C3
:10304000D6FBFFFF24280AD0F0B50C4672490D7854
:1030500083B0032D6AD8DFE805F06643520A6E4953
:103060006E4B0120002208701A8000207047A0F1EA
:103070003003DEB2092E5CD9A0F14103052B40F2EA
:10308000C580A0F16103052B50D85738644B654FBC
:103090001B7840EA03135FFA83FE604B1E8800230F
:1030A000BB550B70C6B15F493E44002311F8010BBC
:1030B000434008204FFA83FC5B00BCF1000F00F195
:1030C000FF30DBB2B8BF83F0070310F0FF00F1D18F
:1030D000B142EBD173453FD02AB30123137022E0F4
:1030E0002A2836D00A2821D00D281FD04B4A138811
:1030F0003E2B1BD84B4C591CE054118013E0A0F11F
:103100003003DBB2092B0AD9A0F14103052B7FD98B
:10311000A0F16103052B09D8A0F15703DBB24048A9
:10312000032203700A70002003B0F0BD00230B706F
:10313000F9E73B483B4F007843EA00135FFA83FE10
:10314000364B1E880023BB550B703346002EAAD188
:10315000C0E702230B70E6E7002222703B78626032
:10316000453BA2602273112BDDD801A252F823F057
:10317000E531000827310008273100082731000811
:1031800027310008273100082731000827310008BF
:10319000273100082731000827310008DD310008F9
:1031A0002731000809320008DF3100082731000804
:1031B00027310008B93100081B491C48002501AB24
:1031C0006A46CDE90055FDF767F80228ABD1DDE985
:1031D00000230120C4E901232070A5E705252570FF
:1031E0000120A1E712491148002501AA0195FDF728
:1031F00053F8012897D1019A521B4FF0020118BFD2
:103200000122217022738FE70425E8E737383DE774
:10321000A0F13703DBB282E7480300200603002059
:1032200004030020080300201C4A000809030020B2
:10323000284A000830B597B0144600931A9B0193B2
:103240001B9B0293BDF870300393BDF87430049358
:10325000184A234605460C4606A84021FDF730FAD9
:103260000DF11903411E13FA81F10DF1180E00231F
:103270001EF8010B082243404FFA83FC5B00BCF1AF
:10328000000F02F1FF32DBB2B8BF83F0070312F088
:10329000FF02F1D17145EBD10093074A06AB2846F6
:1032A0002146FDF70DFA80B2A04228BF002017B0DA
:1032B00030BD00BF2C4A0008444A000830B5134610
:1032C00083B00D4614464FF0080C4FFA84FE64009C
:1032D000BEF1000F0CF1FF3CE4B2B8BF84F007046C
:1032E0001CF0FF0CF1D1054A00942946FDF7E8F9DE
:1032F000062D8CBF0620002003B030BD504A0008C8
:10330000044B08204FF480114FF4800298619961BA
:103310009A61FEE70010024008B5FFF7F1FF00BF19
:1033200008B5FFF7EDFF00BF08B5FFF7E9FF00BFE5
:1033300008B5FFF7E5FF00BF704700BF704700BF4B
:10334000704700BF00F00CB9014800F023BE00BF79
:10335000D8010020014801F00FB900BF2002002071
:1033600082B00D4B002100915A6C42F480425A64A5
:103370005A6C02F480420092009A01911A6C42F059
:1033800080521A641B6C03F080530193019B03204D
:1033900002B000F0F7B800BF003802400E4B0268E0
:1033A0009A4200D0704700B583B0002203F509337C
:1033B0000192196C41F0200119641B6C03F0200389
:1033C000019311463720019B00F0EEF8372003B03F
:1033D0005DF804EB00F024B9001400400000000088
:1033E00010B5214B026888B000249A42CDE902440E
:1033F000CDE90444069401D008B010BD03F5943320
:1034000000945A6C194842F010025A645A6C02F047
:1034100010020092009A01941A6B9FED0F7B42F00C
:1034200001021A631B6B8DED027B9FED0D7B03F098
:103430000103019302A907238DED047B0693019AF2
:1034400000F072F922460121252000F0ADF8252078
:1034500000F0E6F808B010BD000600000200000011
:1034600001000000030000000010014000000240C5
:103470004FF0FF30704700BF0020704700207047BA
:10348000104670470C490D4A0B6810B50C4C121BC6
:103490002BB11844904207D80860184610BD094B5C
:1034A0000B6018449042F7D9FDF728F80C2303600D
:1034B0004FF0FF33184610BD4C03002000000220DF
:1034C0000008000058030020054BD3F888204FF077
:1034D000006142F47002C3F888209960704700BF11
:1034E00000ED00E038B50E4A0E4B1278054618681C
:1034F0004FF47A73B3FBF2F3B0FBF3F000F09EF8F5
:1035000008B90F2D01D9012038BD044602462946CD
:103510004FF0FF3000F048F8034B20461D6038BDE7
:1035200064000020600000206800002008B50B4BFC
:103530001A6842F400721A601A6842F480621A60D3
:103540001A6842F480721A60032000F01BF80F2002
:10355000FFF7C8FFFFF704FF002008BD003C024052
:10356000034A044B11681B780B441360704700BF7B
:103570005003002064000020014B1868704700BF12
:10358000500300200749CA6803024FF6FF0003F406
:10359000E0630240134343F0BF6343F40033CB6066
:1035A000704700BF00ED00E01B4BDB68C3F3022354
:1035B00000B5C3F1070EBEF1040F03F1040C28BFE0
:1035C0004FF0040EBCF1060F1CD9A3F1030C4FF011
:1035D000FF3303FA0CF322EA03024FF0FF3303FA3E
:1035E0000EF321EA030303FA0CF313431B01002833
:1035F000DBB20ADB00F1604000F5614080F8003387
:103600005DF804FB00229446E7E7044A00F00F004F
:10361000024413765DF804FB00ED00E0FCEC00E0F2
:10362000002807DB044A4109012300F01F00834002
:1036300042F82130704700BF00E100E00138B0F1EE
:10364000807F01D30120704710B44FF0E023074C76
:1036500058614FF0F00C84F823C000220721104677
:103660009A615DF8044B1961704700BF00ED00E0FE
:1036700070B50446866DFFF77FFF94F83530022B56
:1036800006D080236365002384F83430012070BDA8
:1036900023681A6822F016021A605A6922F0800222
:1036A0005A61226C054642B31A6822F008021A6079
:1036B0001A6822F001021A6005E0FFF75DFF431B64
:1036C000052B10D823681B6813F00103F5D1E16DB9
:1036D0003F228A40184601210023B26084F8351049
:1036E00084F8343070BD032320226265184684F8C4
:1036F0003530002384F8343070BDA26C002AD3D159
:10370000D6E700BF90F83530022B03D08023436505
:10371000012070470268052380F83530136823F0D4
:1037200001030020136070472DE9F04F00230C685F
:10373000DFF814A285B04FF0010B894603E0013396
:10374000102B00F092800BFA03F202EA0408A24365
:10375000F5D1D9F8041001F0030C5A0003250CF13F
:10376000FF369540012E6FEA050540F28180BCF1DD
:10377000030F40F0D98006680CFA02F235402A4364
:1037800011F4403F0260DAD000220392DAF84420BC
:1037900042F48042CAF84420DAF8442002F480421D
:1037A0000392039A23F0030202F1804203F003061E
:1037B0000F2702F59C32B60007FA06FC5F4F9568AA
:1037C000B84225EA0C0527D007F58067B84200F01B
:1037D00087805B4FB84200F08980DFF870C1604598
:1037E00000F08A80DFF868C1604500F08B80DFF868
:1037F00064C1604500F08C80DFF85CC1604500F07A
:103800008D80DFF858C160450CBF4FF0070C4FF0BA
:10381000080C0CFA06F6354395604A4A9268CE02C7
:103820006FEA0805474E54BF2A4048EA0202B260D8
:10383000F268444E8F0254BF2A4048EA0202F26006
:1038400072688E033F4E54BF2A4048EA02027260FB
:103850003268C90303F101033A4954BF2A4048EAD8
:103860000202102B0A607FF46EAF05B0BDE8F08F46
:10387000866806EA050ED9F80C60964046EA0E0600
:103880008660466826EA080EC1F300169E4046EAA6
:103890000E064660C66806EA050ED9F8086096402E
:1038A00046EA0E06BCF1020FC6607FF464AFDE0884
:1038B00000EB86060196376AD9F81060009703F08E
:1038C000070E4FEA8E0E0F2706FA0EF607FA0EFEC7
:1038D000009F27EA0E0E019F46EA0E063E624AE767
:1038E0004FF0010C0CFA06F6354395E74FF0020C49
:1038F0000CFA06F635438FE74FF0030C0CFA06F688
:10390000354389E74FF0040C0CFA06F6354383E79C
:103910004FF0050C0CFA06F635437DE74FF0060C28
:103920000CFA06F6354377E7C66806EA050ED9F8BD
:103930000860964046EA0E06C6601CE7000002409A
:1039400000080240003C014000380240000C0240E8
:10395000001002400014024000180240001C024007
:1039600002B9090481617047002800F0D8812DE96F
:10397000F0410368DD0782B004462FD59D498A686F
:1039800002F00C02042A00F0EC808A6802F00C02BB
:10399000082A00F0E2806368B3F5803F00F0EB8016
:1039A000B3F5A02F00F07381924D2A6822F4803283
:1039B0002A602A6822F480222A60002B40F0E080EE
:1039C000FFF7DAFD064605E0FFF7D6FD801B642809
:1039D00000F200812B689F03F6D423689D0728D549
:1039E000844A916811F00C0F00F09B80916801F0FF
:1039F0000C01082900F09180E368002B00F00C8195
:103A00007D4B7C4E01221A60FFF7B6FD054605E0AE
:103A1000FFF7B2FD401B022800F2DC8033689F07ED
:103A2000F6D53368226923F0F80343EAC203336012
:103A300023681A075CD45D073AD56E4A136C13F0FD
:103A4000805340F088800193136C43F080531364DB
:103A5000136C03F080530193019B0125674E33687B
:103A6000D80540F1A780A368012B00F0B780052B93
:103A700000F01D815F4E326F22F001023267326F1B
:103A800022F004023267002B40F0AD80FFF774FD96
:103A900041F28838074605E0FFF76EFDC01B404540
:103AA00000F29880336F9B07F6D4002D40F0F98028
:103AB000A369CBB14F4DAA6802F00C02082A00F0AE
:103AC000BC80022B4C4B4FF000021A6600F0F980CC
:103AD000FFF752FD044604E0FFF74EFD001B0228ED
:103AE00078D82B689B01F7D4002002B0BDE8F081A4
:103AF0006369FBB1404B3F4E0122C3F8802EFFF7B4
:103B00003BFD054604E0FFF737FD401B022861D866
:103B1000736F9B07F7D523688DE7526851023FF515
:103B20006BAF344A1268920738D5E268012A35D063
:103B30000120DAE7304A2F4EC2F8803EFFF71CFD25
:103B4000054604E0FFF718FD401B022842D8736FBA
:103B50009F07F7D4DFE7002580E74A6851027FF529
:103B60001AAF244A126892037FF538AF6268002AC0
:103B70007FF434AFDCE71F4A136843F480331360EB
:103B8000FFF7FAFC1B4E054604E0FFF7F5FC401B6F
:103B900064281FD833689B03F7D51EE715492069B1
:103BA0000A6822F0F80242EAC0020A601A077FF5AA
:103BB00042AF9DE7336843F480733360FFF7DCFC6A
:103BC00007463368D9053FF54EAFFFF7D5FCC01B5C
:103BD0000228F6D9032002B0BDE8F081054A136F30
:103BE00043F001031367FFF7C7FC024F064641F29B
:103BF00088380AE000380240000047420070004068
:103C0000FFF7BAFC801B4045E4D83B6F9A07F7D515
:103C1000002D3FF44DAF44E0424A434E1360FFF79E
:103C2000ABFC054604E0FFF7A7FC401B0228D1D8F7
:103C300033689907F7D42368FBE6012B3FF478AF8C
:103C40006B68E26903F4800191427FF471AF226AEC
:103C500003F03F0191427FF46BAF616A47F6C07297
:103C60001A40B2EB811F7FF463AFA26A520803F4DB
:103C70004031013AB1EB024F7FF45AAFE26A03F0F0
:103C80007063B3EB026F14BF012000202DE7264BB9
:103C90001A6842F480221A601A6842F480321A606C
:103CA0006EE7214A136C23F08053136400E71E4B28
:103CB0001A6F42F004021A671A6F42F001021A6783
:103CC00091E7FFF759FC064605E0FFF755FC801B1E
:103CD00002283FF67FAF2B689901F6D4D4E907316B
:103CE000626A0B4343EA8213D4E90A2052080D4961
:103CF00043EA0063013A43EA024301226B600A6629
:103D0000FFF73AFC084D044605E0FFF735FC001BC1
:103D100002283FF65FAF2B689A01F6D5E4E6012052
:103D2000704700BF0000474200380240164908B5FE
:103D30008B6803F00C03042B1BD0082B01D0134815
:103D400008BD4A684B68496813F4800302F03F02DB
:103D500011D10E48C1F38811A1FB0001FEF794FBBD
:103D6000094B5B68C3F3014301335B00B0FBF3F025
:103D700008BD074808BD0648C1F388110023A1FB10
:103D80000001FEF781FBEBE7003802400024F4005D
:103D900000127A00002800F08780484A136803F078
:103DA00007038B422DE9F0410D46044609D2CBB200
:103DB0001370136803F007038B4202D00120BDE8A3
:103DC000F0812368980714D5590704D53C498A68BF
:103DD00042F4E0528A601A0704D539498A6842F4ED
:103DE00060428A603649A0688A6822F0F002024385
:103DF0008A60DF0721D56268012A57D0931E012B04
:103E00002F4B1B684DD99907D8D52D4EB36823F099
:103E100003031343B360FFF7AFFB41F28838074653
:103E200004E0FFF7A9FBC01B404544D8B3686268B3
:103E300003F00C03B3EB820FF3D1204A136803F0B5
:103E40000703AB4206D9EBB21370136803F0070304
:103E5000AB42B3D123685A0706D51949E0688A688E
:103E600022F4E05202438A601B0707D5144A2169F5
:103E7000936823F4604343EAC1039360FFF756FF5E
:103E80000F4A104C92681049C2F303120346A25C19
:103E90000E48D34000680B60FFF724FB0020BDE80C
:103EA000F0819801B1D489E701207047044B1B6869
:103EB0009E03AAD482E7032081E700BF003C0240B2
:103EC00000380240C04A000860000020680000205E
:103ED000044B05499B68054A0868C3F38223D35CF9
:103EE000D84070470038024060000020B84A0008FF
:103EF000044B05499B68054A0868C3F34233D35C09
:103F0000D84070470038024060000020B84A0008DE
:103F100090F83D30012B2FD103681849022280F818
:103F20003D20DA688B4242F00102DA6019D0B3F129
:103F3000804F16D0124A934213D002F5806293420A
:103F40000FD002F5806293420BD002F57842934283
:103F500007D002F57052934203D0A2F594329342F7
:103F600004D19A6802F00702062A03D01A6842F0C8
:103F700001021A60002070470120704700000140D4
:103F800000040040704700BF704700BF704700BF8B
:103F9000704700BF036870B5DE681D69A907044655
:103FA00001D5B20751D4690701D572073AD42B075E
:103FB00001D5300724D4EA0601D5F30610D4E8076A
:103FC00001D5F10757D42A0601D533065BD468061C
:103FD00001D571065FD4AA0601D5B30642D470BDDF
:103FE00023686FF010021A6108222277DB6913F44C
:103FF000407F204663D0FFF7C7FF00232377DEE72B
:1040000023686FF008021A6104222277DB6999079E
:10401000204651D1FFF7B6FF2046FFF7B7FF002338
:104020002377C8E723686FF004021A61022222771F
:104030009B6913F4407F20463BD1FFF7A3FF204646
:10404000FFF7A4FF00232377B1E76FF002021A61A4
:10405000012202779B699B0725D0FFF795FF00237C
:104060002377A0E723686FF0200220461A61BDE89D
:10407000704000F003B923686FF001021A61204616
:10408000FEF77AFB9FE723686FF080021A612046F3
:1040900000F0F6F89BE723686FF040021A612046B3
:1040A000FFF776FF97E7FFF76DFF2046FFF76EFFFC
:1040B000D5E7FFF769FFC5E7FFF766FFAFE7FFF753
:1040C00061FF2046FFF762FF97E700BF324A0368AF
:1040D000904210B44CD0B0F1804F38D0A2F57C4261
:1040E000904234D002F58062904230D002F5806276
:1040F00090422CD002F57842904239D0274A904223
:1041000029D002F58062904225D002F5806290426B
:1041100021D0A2F5983290421DD002F580629042E3
:1041200019D002F58062904215D00A688C684969FE
:10413000C46223F080030B43826202685DF8044B83
:10414000012142F0040202604161036070474A6845
:1041500023F070031343CC684A6923F4407323436C
:1041600023F080038C6813430A68C4628262E4E728
:104170004C68CA6823F07003234323F4407313434D
:104180008A684C69C2620A6882620A69026323F023
:1041900080032343D1E700BF0000014000400140FD
:1041A00050B310B590F83D30044603F0FF02F3B170
:1041B0002146022384F83D3051F8040BFFF786FFB7
:1041C000012384F8463084F83E3084F83F3084F888
:1041D000403084F8413084F8423084F8433084F829
:1041E000443084F8453084F83D30002010BD80F81C
:1041F0003C20FFF7D3F8DBE70120704790F83C2024
:10420000012A37D003460268022030B483F83D000B
:1042100050680D68946820F070002843506016487C
:1042200082421AD0B2F1804F17D0A0F57C40824272
:1042300013D000F5806082420FD000F5806082428A
:104240000BD000F57840824207D000F570508242D2
:1042500003D0A0F59430824204D1496824F0800450
:104260000C4394600020012283F83D2083F83C0039
:1042700030BC70470220704700000140704700BF0B
:10428000704700BF026802F10C0353E8003F23F4BB
:10429000907302F10C0C4CE800310029F3D102F1CB
:1042A000140353E8003F23F0010302F1140C4CE81F
:1042B00000310029F3D1036B012B05D0202200230C
:1042C00080F842200363704702F10C0353E8003F7B
:1042D00023F0100302F10C0C4CE800310029F3D15B
:1042E000ECE700BF0268116938B50446C068A368EE
:1042F00021F4405101432069116103436069D16891
:104300000343E06921F4164121F00C0103430B4300
:10431000D3605369A069234923F4407303438A425D
:10432000536105D0204B9A4202D0FFF7D1FD01E046
:10433000FFF7DEFDE2691921B2F5004FD4E9005321
:10434000A0FB010113D09A009B0FFEF79DF8174ABE
:10435000A2FB00135B09642101FB13000001323052
:10436000A2FB00201B0103EB5013AB6038BDDA1831
:104370004FF000035B41FEF787F80C4AA2FB0031C7
:104380004909642303FB1103DB003233A2FB03233F
:10439000C3F342121B0902EB011203F4F873134436
:1043A000AB6038BD00100140001401401F85EB5187
:1043B00070B310B590F84130044603F0FF0213B318
:1043C0002268242384F84130D36823F40053204624
:1043D000D360FFF787FF2368196921F490411961C1
:1043E000596921F02A015961D96800224FF0200C47
:1043F00041F40051D960626484F841C084F842C03D
:104400001046626310BD80F84020FEF7E9FFD7E751
:104410000120704790F84130202B15D101B10AB925
:104420000120704710B40023046801622121C28476
:10443000436480F84110E168828441F08001E160CA
:1044400018465DF8044B70470220704790F84230E0
:10445000202B03D101B11AB9012070470220704707
:1044600010B4046981620023222103638285C2851E
:104470004364036880F842101CB1DA6842F4807229
:10448000DA605A695DF8044B42F001025A61DA6859
:1044900042F020020020DA60704700BF704700BF82
:1044A00008B5806B0023C385FEF77AF908BD00BF0D
:1044B000704700BF90F84230222B57D183680168C3
:1044C000826AB3F5805F44D0002B4BD10369002B87
:1044D00048D14B68DBB21370826A0132C38D8262AD
:1044E000013B9BB2C385002B40D10268D16821F00B
:1044F000200100B5D160D16821F48071D16051698B
:104500004FF0200C21F00101516180F842C043635B
:10451000016B012983B02AD1036302F10C0353E834
:10452000003F23F0100302F10C0C4CE8003100298D
:10453000F3D11368DB0606D50023019313680193BA
:1045400053680193019B818DFFF7B2FF03B05DF8C3
:1045500004FB0369002BBCD14B68C3F3080322F8AA
:10456000023BBBE74B6803F07F03B4E77047FEF7FD
:104570000DF903B05DF804FB70B505682B68EE68B3
:10458000696913F00F0F82B004462A4672D19D0666
:1045900002D5B10600F1C680216B01290BD01806A7
:1045A00002D5310600F194805B0602D5750600F154
:1045B000AE8002B070BDD806F1D5F106EFD500236C
:1045C00001931368019353680193019B5169A38D73
:1045D0004D0640F10C81E06B0168496889B2002901
:1045E00000F04881994280F04581E185C169B1F5CB
:1045F000807F36D002F10C0353E8003F23F4807330
:1046000002F10C0545E800310029F3D102F1140351
:1046100053E8003F23F0010302F1140545E800319F
:104620000029F3D102F1140353E8003F23F04003C3
:1046300002F1140545E800310029F3D1202384F864
:104640004230216302F10C0353E8003F23F01003D2
:1046500002F10C0545E800310029F3D1FFF708F815
:10466000A38D02226263E18D591A204689B2FFF7B9
:104670001FFF9EE711F0010176D116F4907F8BD0D9
:10468000DA070AD5F00540F1EC80626C580742F079
:10469000010262644FD500296AD198075AD51907DB
:1046A00000F1A280626C002A83D09A0602D5B3067C
:1046B00000F1DB806B69626C03F0400302F00802DA
:1046C00053EA020620465CD1FEF76AF8666470E79A
:1046D00094F84130212B7FF46CAFA168236AB1F5C7
:1046E000805F00F0D080591C21621B785360E38CFE
:1046F000013B9BB2E384002B7FF45BAFD36823F0D4
:104700008003D360D36843F04003D36051E7D3689C
:10471000202123F04003D360204684F84110FFF7A6
:10472000BDFE46E702B0BDE87040FFF7C3BEF0052E
:10473000ABD45A071CD498070CD50029AFD0626CB3
:1047400042F0040262641A07ACD5626C42F00802BF
:104750006264A7E71807A5D506F020020A43F4D142
:10476000636C002BA6D124E7DA07E0D4580738D5CC
:10477000626C990742F002026264E0D41A07E4D442
:1047800090E7FFF77FFD6B695E0626D505F1140300
:1047900053E8003F23F0400305F1140141E80032E3
:1047A00062B1226802F1140353E8003F23F0400392
:1047B00002F1140040E800310029F3D1E06B60B150
:1047C000364B0365FEF79EFF00283FF4F2AEE06B28
:1047D000036D02B0BDE8704018472046FDF7E0FFCA
:1047E000E7E69907ABD4C9E7B206AED4B8E7E08DE7
:1047F000E18D89B280B200293FF4DBAE1B1A99B279
:1048000000293FF4D6AE02F10C0353E8003F23F435
:10481000907302F10C0545E800300028F3D102F155
:10482000140353E8003F23F0010302F1140545E8A7
:1048300000300028F3D1202384F84230206302F1B5
:104840000C0353E8003F23F0100302F10C0545E888
:1048500000300028F3D1022363632046FFF728FECF
:10486000A7E65A073FF519AF65E72046FFF722FE96
:1048700025681FE799427FF49CAEC369B3F5807F3A
:104880007FF497AEE7E7216900297FF42CAF33F876
:10489000021BC1F308015160236228E7A14400080C
:1048A000DFF834D0FEF710FE0C480D490D4A002306
:1048B00002E0D458C4500433C4188C42F9D30A4AD5
:1048C0000A4C002301E013600432A242FBD3FBF741
:1048D000BBFCFDF77DFF70470000022000000020B8
:1048E0006C000020E04A0008700000205403002003
:1048F000FEE70000F8B500BFF8BC08BC9E46704754
:0C490000F8B500BFF8BC08BC9E4670472C
:10490C00844A0008884A00088C4A000800202020AD
:10491C002020202020202828282828202020202063
:10492C002020202020202020202020202088101033
:10493C00101010101010101010101010100404048F
:10494C00040404040404041010101010101041414D
:10495C00414141410101010101010101010101013B
:10496C00010101010101010110101010101042424F
:10497C00424242420202020202020202020202020B
:10498C0002020202020202021010101020000000AB
:10499C00000000000000000000000000000000000B
:1049AC0000000000000000000000000000000000FB
:1049BC0000000000000000000000000000000000EB
:1049CC0000000000000000000000000000000000DB
:1049DC0000000000000000000000000000000000CB
:1049EC0000000000000000000000000000000000BB
:1049FC0000000000000000000000000000000000AB
:104A0C00000000000000000000000000000000009A
:104A1C002C256C642C256C64000000002C25640093
:104A2C00462C256C642C256C642C256C642C256C14
:104A3C00642C25752C2575002425732A25303258B5
:104A4C000A0000002425632A253032580A00000091
:104A5C00232D302B20000000686C4C0065666745E8
:104A6C0046470000412D46612D66383930313233CE
:104A7C00343536375D0000002B2D0000303000003F
:104A8C0078580000303132333435363738394142BA
:104A9C00434445460000000030313233343536375C
:104AAC003839616263646566000000000000000034
:104ABC0001020304000000000000000001020304D6
:044ACC0006070809C8
:084AD000B0B8FF7F01000000F7
:044AD80029020008A7
:044ADC0001020008CB
:104AE00004000020000000008C000020F4000020E2
:104AF0005C01002000000000000000000000000039
:104B000000000000000000000000000000000000A5
:104B10000000000000000000000000000000000095
:104B20000000000000000000000000000000000085
:104B300000000000030000008C00002001010000C4
:0C4B40000024F400010000001000000040
:04000005080048A106
:00000001FF
